:020000020000FC
:100000000FC00DC00CC00BC00AC062C008C007C042
:1000100006C005C004C003C04BC001C000C0F0CF83
:10002000F89411241FBE02E00EBF0FE50DBF11248E
:10003000D0E0C0E60027199203950032E1F71127BE
:1000400003B7056003BF09B7026009BF00EF02BF35
:1000500005B7006205BF08B1006808B900B50B60BC
:1000600000BD01B5086101BD016601BD7894B99A72
:100070003ED0E4E6F0E0C6E6D0E07191608199916F
:100080008881681781F4791771F430E023E0621FEA
:100090000FB700FD7395730F68837A93D0E0CAE6BB
:1000A000088101600883000028D058D0E1CFCFC07C
:1000B0001F920F920FB60F920F93A89501B500648F
:1000C00001BD1D7F0F910F900FBE0F901F901895CF
:1000D0001F920F920FB60F920F9300EF02BF1160A5
:1000E0001D7F0F910F900FBE0F901F90189511FF5D
:1000F00008957894889512600895F89410FF0CC0C4
:100100000DD0D0E0C0E63991288123950FB701FDCD
:10011000339528833A931E7F78940895A0E6B0E043
:10012000C2E6D0E07D916C91999188816817A9F41D
:10013000791799F428EE33E0821F0FB700FD9395ED
:10014000930F88839A93D0E0C4E639912881239550
:100150000FB701FD339528833A930895D0E0CAE69E
:10016000088100FF08C00E7F0883D0E0CBE608813D
:1001700001600883089502D036D00895D0E0CBE620
:10018000088100FF2FC007FD14C000680883C19AD2
:10019000E0E6F0E0C8E6D0E0719160819991888155
:1001A00030E022E3621F0FB700FD7395730F688381
:1001B0007A93ABE6B0E00C9100FF14C0E0E6F0E00B
:1001C000C8E6D0E07191608199918881681751F4F7
:1001D000791741F400C0D0E0CBE608810E770260C9
:1001E000088308950895D0E0CBE6088101FF16C08A
:1001F00007FD14C000680883C198E4E6F0E0C8E693
:10020000D0E0719160819991888130E021E0621F96
:100210000FB700FD7395730F68837A93ABE6B0E078
:100220000C9101FF13C0E4E6F0E0C8E6D0E0719164
:10023000608199918881681749F4791739F400C071
:10024000D0E0CBE608810D77088308950895F894EF
:02025000D7CE07
:00000001FF
