:020000020000FC
:100000000FC00DC00CC00BC00AC04CC008C007C058
:1000100006C005C004C003C035C001C000C0F0CF99
:1000200011241FBE02E00EBF0FE50DBF1127F8948B
:1000300003B7056003BF09B7026009BF00EF02BF45
:1000400078941124D0E0C0E6002719920395083077
:10005000E1F7F89405B7006205BF08B1006808B978
:1000600000B50B6000BD01B5086101BD016601BDB1
:100070007894B99A2FD033D042D05AD022D014607D
:10008000F9CF67C01F920F920FB60F920F93A895EA
:1000900001B5006401BD1B7F0F910F900FBE0F9043
:1000A0001F9018951F920F920FB60F920F9300EFAB
:1000B00002BF11601B7F0F910F900FBE0F901F901A
:1000C000189513FF0895B19B02C0C19801C0C19A51
:1000D000177F089512FF089578948895089510FF6A
:1000E0000895F894D0E0C0E63991288123950FB7A0
:1000F00001FD339528833A9378941E7F0895F894F0
:10010000A0E6B0E0C2E6D0E07D916C91681771F492
:1001100099918881791751F428EE33E0821F0FB747
:1001200000FD9395930F88839A93126078940895B5
:1001300011FF0895F894D0E0C4E639912881239501
:100140000FB701FD339528833A9378941D7F18608B
:060150000895F89455CF5C
:00000001FF
