:020000020000FC
:1000000004C10DC00CC00BC00AC08FC108C007C01E
:1000100006C005C004C003C078C101C000C0F0CF55
:100020000F93C29A00000000000000000000C0987A
:100030000000000000000000C298C09A0EB10068E5
:100040000EB90F9108950F93C098C29AB29BFECF3C
:100050000000000000000000C09A00000000000046
:1000600000000EB100620EB90F9108950F930DB10B
:100070000160000000000000000000000DB9B29B0C
:10008000FECF00000000000000000DB9769BF1CF0C
:10009000000000000000000000000FEF0FB9B89A48
:1000A0000F9108950F93C2980EB10064017F0EB9AD
:1000B000DDDF0F9108950F93B8980EB10E640EB95D
:1000C000D5DF0F910895220F0F93B0E0AAE60C91AF
:1000D00001FF02C00F9121602FB9E4DFECDF7899B6
:1000E00008C00F93B0E0AAE60C9104600C930F9146
:1000F000AADF08952FB9D6DFDEDF789908C00F9305
:10010000B0E0AAE60C9104600C930F919CDF089577
:10011000B898C8DF3FB1CFDF08958F939F939FEFCB
:100120008FEF000000000000000000000000000051
:10013000000000000000000000000197803089F7F7
:10014000903079F79F918F91F5E0E8E807E0002E75
:10015000059166DF1FD0259146D075DF9591859179
:100160008F939F939FEF8FEF00000000000000002F
:10017000000000000000000000000000000000007F
:100180000197803089F7903079F79F918F910A9489
:1001900001F70895202F97DF0895207F0F93B0E097
:1001A000ABE60C9101FD08C00F910F93B0E0ABE6F8
:1001B0000C9101600C930F910F93B0E0ABE60C91A2
:1001C00004600C930F9101C02B7F94DF22FDFCCFC4
:1001D00008950F92022EE1DF0294202DDEDF28E049
:1001E00089DF0F9008950F93B0E0ABE60C910E7F7E
:1001F0000C930F91EEDF08950F93B0E0ABE60C91F6
:1002000001600C930F91E5DF0895F89411241FBE4F
:1002100002E00EBF0FE50DBF1124D0E0C0E60027BD
:10022000199203950038E1F7112703B7056003BF62
:1002300009B7026009BF00EF02BF05B7006205BF42
:1002400008B1006808B900B5096000BD01B50861D2
:1002500001BD016601BDB99ABC9ABB9AC09AC29A07
:10026000B89ABA9A0FEF0FB900270A620DB90027A2
:10027000006F0EB952DF789467D0E4E6F0E0719138
:100280006081C0E8D0E099918881681761F479179E
:1002900051F430E024E0620F731F68837A93C4E85E
:1002A000D0E001E0088386D0E4E6F0E0719160815F
:1002B000C0E9D0E099918881681761F4791751F409
:1002C00030E025E0620F731F68837A93C4E9D0E0C1
:1002D00001E008837FD0E4E6F0E071916081C0EA3C
:1002E000D0E099918881681761F4791751F430E072
:1002F00023E0620F731F68837A93C4EAD0E001E0C1
:10030000088378D027D0B8CF34C11F920F920FB690
:100310000F920F93A89501B5006401BD1D7F0F9149
:100320000F900FBE0F901F9018951F920F920FB64F
:100330000F920F9300EF02BF11601D7F0F910F907E
:100340000FBE0F901F90189511FF0895789488950F
:1003500012600895F89410FF0DC00ED0D0E0C0E6F2
:100360003991288101E0002E1124200D311D2883B0
:100370003A931E7F78940895A0E6B0E0C2E6D0E0FC
:100380007D916C9199918881681799F4791789F416
:1003900028EE33E0820F931F88839A93D0E0C4E65F
:1003A0003991288101E0002E1124200D311D288370
:1003B0003A930895F5E0E6E73F2F2E2FD0E0C6E60A
:1003C00039932993F0E0E0E83F2F2E2F39932883CB
:1003D00021D00895F5E0ECE73F2F2E2FD0E0C6E6C0
:1003E00039932993F0E0E0E93F2F2E2F39932883AA
:1003F00011D00895F5E0E2E83F2F2E2FD0E0C6E6B9
:1004000039932993F0E0E0EA3F2F2E2F3993288388
:1004100001D00895D0E0C8E639912881D32FC22FAA
:100420000C81013039F0023039F0053039F00630F6
:1004300039F0089507D0089530D008954BD008952D
:1004400076D00895F0E0E6E691918081F92FE82FCB
:100450000491102E08B3012908BB0296F92FE82F4A
:1004600025913491D0E0C8E6999188810296D92FE0
:10047000C82FB0E0A0E67D916C91620F731F788366
:100480006983B0E0A8E69D918C910496B92FA82FBE
:100490000C91087F02600C930895D0E0C8E6999112
:1004A00088810296D92FC82F98818981B0E0A0E673
:1004B0007D916C91681769F4791759F4B0E0A8E65A
:1004C0009D918C910496B92FA82F0C91087F0560FF
:1004D0000C930895F0E0E6E691918081F92FE82FE2
:1004E0000491002E01940A9408B3002108BB0496DD
:1004F000F92FE82F25913491D0E0C8E699918881B1
:100500000296D92FC82FB0E0A0E67D916C91620FC2
:10051000731F78836983B0E0A8E69D918C9104965F
:10052000B92FA82F0C91087F06600C930895D0E096
:10053000C8E6999188810296D92FC82F9881898120
:10054000B0E0A0E67D916C91681761F4791751F4E1
:10055000B0E0A8E69D918C910496B92FA82F0C913C
:10056000087F0C930895B39B02C0C39801C0C39A3F
:100570000895F89445CD02000C00190010001900F0
:1005800019000800190019002703010403010403DE
:1005900000960205FA2800270C00270105FA486199
:0605A0006C6C6F212121AB
:00000001FF
