:020000020000FC
:100000000FC00DC00CC00BC00AC057C008C007C04D
:1000100006C005C004C003C040C001C000C0F0CF8E
:10002000F89411241FBE02E00EBF0FE50DBF11248E
:10003000D0E0C0E60027199203950F3FE1F71124A5
:10004000D1E0C1E60027199203950F3FE1F7112790
:1000500003B7056003BF09B7026009BF00EF02BF25
:1000600005B7006205BF08B1006808B900B50B60AC
:1000700000BD01B5086101BD016601BD7894B99A62
:10008000C19A2AD02FD015FF06C0B19B02C0C198DB
:1000900001C0C19A1F7DF5CF56C01F920F920FB6B7
:1000A0000F920F93A89501B5006401BD1F7E0F91BB
:1000B0000F900FBE0F901F9018951F920F920FB6C2
:1000C0000F920F9300EF02BF11601F7E0F910F90F0
:1000D0000FBE0F901F90189514FF0895789488957F
:1000E00010610895F89410FF0CC00DD0D0E0C0E668
:1000F0003991288123950FB701FD339528833A93D1
:100100001E7F78940895A0E6B0E0C2E6D0E07D912D
:100110006C916817B9F499918881791799F428EE50
:1001200033E0821F0FB700FD9395930F88839A9356
:10013000D0E0C4E63991288123950FB701FD3395AE
:0A01400028833A930895F8945BCFEA
:00000001FF
