:020000020000FC
:100000000FC00DC00CC00BC00AC04EC008C007C056
:1000100006C005C004C003C037C001C000C0F0CF97
:1000200011241FBE02E00EBF0FE50DBF1127F8948B
:1000300003B7056003BF09B7026009BF002702BF0D
:1000400078941124D0E0C0E6002719920395083077
:10005000E1F7F89405B7006205BF08B1006808B978
:1000600000B50B6000BD01B5086101BD016601BDB1
:100070007894B99A12FF01C02FD02FD03CD048D02D
:1000800022D01460F7CF53C01F920F920FB60F9279
:100090000F93A89501B5006401BD1B7F0F910F90D0
:1000A0000FBE0F901F9018951F920F920FB60F92D0
:1000B0000F93112412BE11601B7F0F910F900FBE82
:1000C0000F901F90189513FF0895B19B02C0C1981F
:1000D00001C0C19A177F0895089510FF0BC0D0E0AA
:1000E000C0E67991688163950FB701FD73956883C8
:1000F0007A931E7F0895B0E0A0E67D916C91683EF2
:1001000031F4733021F411241C921E921260089570
:1001100011FF0CC0D0E0C2E67991688163950FB7FA
:1001200001FD739568837A931D7F18600895F89494
:0201300067CF97
:00000001FF
