:020000020000FC
:100000000FC00DC00CC00BC00AC077C008C007C02D
:1000100006C005C004C003C060C001C000C0F0CF6E
:10002000F89411241FBE02E00EBF0FE50DBF11248E
:10003000D0E0C0E60027199203950032E1F7D0E046
:10004000C6E63991288130E022E328833A931127CC
:1000500003B7056003BF09B7026009BF00EF02BF25
:1000600005B7006205BF08B1006808B900B50B60AC
:1000700000BD01B5086101BD016601BD7894B99A62
:10008000C19A4AD0E0E6F0E0C8E6D0E07191608124
:1000900099918881681791F4791781F4A6E6B0E008
:1000A0003D912C91621F0FB700FD7395730F68830C
:1000B0007A93D0E0CAE608810160088333D0D0E0AB
:1000C000CAE6088100FF07C0B19B02C0C19801C009
:1000D000C19A0E7F0883D5CF56C01F920F920FB6DC
:1000E0000F920F93A89501B5006401BD1F7E0F917B
:1000F0000F900FBE0F901F9018951F920F920FB682
:100100000F920F9300EF02BF11601F7E0F910F90AF
:100110000FBE0F901F90189514FF0895789488953E
:1001200010610895F89410FF0CC00DD0D0E0C0E627
:100130003991288123950FB701FD339528833A9390
:100140001E7F78940895A0E6B0E0C2E6D0E07D91ED
:100150006C91999188816817A9F4791799F428EE20
:1001600033E0821F0FB700FD9395930F88839A9316
:10017000D0E0C4E63991288123950FB701FD33956E
:0A01800028833A930895F8943BCFCA
:00000001FF
