:020000020000FC
:100000000FC00DC00CC00BC00AC0AEC008C007C0F6
:1000100006C005C004C003C097C001C000C0F0CF37
:10002000F89411241FBE02E00EBF0FE50DBF11248E
:10003000D0E0C0E60027199203950038E1F7D0E040
:10004000C0E830E029E13887298730E022E03A87AC
:100050002B8730E028E13C872D8702E00E870027C0
:100060000F8730E020E6388B298B30E024E63A8B8E
:100070002B8BD0E0C0EA30E022E33887298730E0DC
:1000800024E03A872B8730E028E13C872D8700E188
:100090000E8700270F8730E020E6388B298B30E071
:1000A00024E63A8B2B8B112703B7056003BF09B7F2
:1000B000026009BF00EF02BF05B7006205BF08B1CB
:1000C000006808B900B50B6000BD01B5086101BD4D
:1000D000016601BD7894B99ABC9ABB9A54D0E4E603
:1000E000F0E071916081C0E8D0E099918881681753
:1000F00069F4791759F430E025E0620F731F6883C3
:100100007A93D0E0C0E70881016008830000E4E64C
:10011000F0E071916081C0EAD0E099918881681720
:1001200069F4791759F430E027E0620F731F688390
:100130007A93D0E0C0E7088102600883000029D0EC
:1001400058D071D0CBCFE6C01F920F920FB60F924E
:100150000F93A89501B5006401BD1D7F0F910F900D
:100160000FBE0F901F9018951F920F920FB60F920F
:100170000F9300EF02BF11601D7F0F910F900FBE14
:100180000F901F90189511FF08957894889512602C
:100190000895F89410FF0DC00ED0D0E0C0E639915C
:1001A000288101E0002E1124200D311D28833A936F
:1001B0001E7F78940895A0E6B0E0C2E6D0E07D917D
:1001C0006C9199918881681799F4791789F428EED0
:1001D00033E0820F931F88839A93D0E0C4E639916D
:1001E000288101E0002E1124200D311D28833A932F
:1001F0000895D0E0C0E7088105FD12C000FF10C0DF
:10020000D0E0C2E730E020E838832983D0E0C0E7BF
:10021000088100620883D0E0CFE8002701600883EE
:1002200003D03BD008950895F0E0E2E730812181CA
:10023000D32FC22F0F850170013071F50F85007823
:100240000038A9F00F8500680F870E85102E08B3BF
:10025000012908BBB889A9897D916C919A818B810C
:1002600038852985620F731F7A836B8315C0B8891F
:10027000A9897D916C919A818B81681769F47917AE
:1002800059F400C0F0E0E2E730812181D32FC22F82
:100290000F850E7702600F870895F0E0E2E7308166
:1002A0002181D32FC22F0F850270023091F50F8567
:1002B00000780038B9F00F8500680F870E85102E82
:1002C00011941A9408B3012108BBBA89AB897D91B6
:1002D0006C919A818B813A852B85620F731F7A838B
:1002E0006B8317C0BA89AB897D916C919A818B81A0
:1002F000681779F4791769F400C0F0E0E0E732811B
:100300002381D32FC22F0F850D770F8700810E7D9C
:0803100000830895F89474CEF7
:00000001FF
