:020000020000FC
:100000000FC00DC00CC00BC00AC045C008C007C05F
:1000100006C005C004C003C02EC001C000C0F0CFA0
:1000200011241FBE02E00EBF0FE50DBF1127F8948B
:10003000F89403B7056003BF09B7026009BF002742
:1000400002BF05B7006205BF08B1006808B900B576
:100050000B6000BD01B5086101BD016601BD78946A
:10006000B99A11FF01C02DC010FF1E7F12FD22D0D2
:100070001260F7CF28C01F920F920FB60F920F9306
:10008000A89501B5006401BD1D7F0F910F900FBEB3
:100090000F901F9018951F920F920FB60F920F930B
:1000A000112412BE11601D7F0F910F900FBE0F9093
:1000B0001F901895B19B02C0C19801C0C19A1B7FC7
:0A00C000089578948895F8949BCF7A
:00000001FF
