:020000020000FC
:100000000FC00DC00CC00BC00AC04CC008C007C058
:1000100006C005C004C003C035C001C000C0F0CF99
:1000200011241FBE02E00EBF0FE50DBF1127F8948B
:1000300003B7056003BF09B7026009BF00EF02BF45
:1000400078941124D0E0C0E6002719920395083077
:10005000E1F7F89405B7006205BF08B1006808B978
:1000600000B50B6000BD01B5086101BD016601BDB1
:100070007894B99A2FD033D040D04CD022D014608D
:10008000F9CF57C01F920F920FB60F920F93A895FA
:1000900001B5006401BD1B7F0F910F900FBE0F9043
:1000A0001F9018951F920F920FB60F920F9300EFAB
:1000B00002BF11601B7F0F910F900FBE0F901F901A
:1000C000189513FF0895B19B02C0C19801C0C19A51
:1000D000177F089512FF089578948895089510FF6A
:1000E0000895D0E0C0E67991688163950FB701FD6E
:1000F000739568837A931E7F0895B0E0A0E67D91A2
:100100006C91683E31F4733021F411241C921E92DC
:100110001260089511FF0895D0E0C2E679916881D8
:1001200063950FB701FD739568837A931D7F1860FF
:060130000895F89465CF6C
:00000001FF
