:020000020000FC
:100000000FC00DC00CC00BC00AC090C008C007C014
:1000100006C005C004C003C079C001C000C0F0CF55
:10002000F89411241FBE02E00EBF0FE50DBF11248E
:10003000D0E0C0E60027199203950038E1F71127B8
:1000400003B7056003BF09B7026009BF00EF02BF35
:1000500005B7006205BF08B1006808B900B50B60BC
:1000600000BD01B5086101BD016601BD7894B99A72
:10007000BC9ABB9A6AD0E4E6F0E071916081C0E777
:10008000D0E099918881681761F4791751F430E0D4
:1000900024E0620F731F68837A93C4E7D0E001E025
:1000A00008830000E4E6F0E071916081C0E8D0E0F0
:1000B00099918881681761F4791751F430E025E04F
:1000C000620F731F68837A93C4E8D0E001E008836D
:1000D0000000E4E6F0E071916081C0E9D0E0999120
:1000E0008881681761F4791751F430E023E0620FDA
:1000F000731F68837A93C4E9D0E001E008830000AD
:100100002AD059D0C7D035D1B5CFA2C11F920F92F6
:100110000FB60F920F93A89501B5006401BD1D7F26
:100120000F910F900FBE0F901F9018951F920F9276
:100130000FB60F920F9300EF02BF11601D7F0F915A
:100140000F900FBE0F901F90189511FF089578948F
:10015000889512600895F89410FF0DC00ED0D0E07D
:10016000C0E63991288101E0002E1124200D311DB7
:1001700028833A931E7F78940895A0E6B0E0C2E603
:10018000D0E07D916C9199918881681799F47917E5
:1001900089F428EE33E0820F931F88839A93D0E08E
:1001A000C4E63991288101E0002E1124200D311D73
:1001B00028833A930895D0E0C4E70881013039F0EC
:1001C000023039F0053039F0063039F0089507D0A3
:1001D00008951FD0089530D008954AD00895F4E0CE
:1001E000E4E50491102E08B3012908BBB0E0A0E6B5
:1001F0007D916C9130E029E1620F731FB0E0A2E7BE
:100200007D936C93B0E0A4E70C91087F02600C939F
:100210000895B0E0A0E67D916C91B0E0A2E79D91D9
:100220008C91681741F4791731F4B0E0A4E70C9190
:10023000087F05600C930895F4E0E4E50491002E36
:1002400001940A9408B3002108BBB0E0A0E67D91B8
:100250006C9130E029E1620F731FB0E0A2E77D935B
:100260006C93B0E0A4E70C91087F06600C930895AE
:10027000B0E0A0E67D916C91B0E0A2E79D918C91F9
:10028000681739F4791729F4B0E0A4E70C91087FD6
:100290000C930895D0E0C4E80881013039F00230B1
:1002A00039F0053039F0063039F0089507D0089557
:1002B0001FD0089530D008954AD00895F4E0E6E5BF
:1002C0000491102E08B3012908BBB0E0A0E67D918F
:1002D0006C9130E029E1620F731FB0E0A2E87D93DA
:1002E0006C93B0E0A4E80C91087F02600C93089531
:1002F000B0E0A0E67D916C91B0E0A2E89D918C9178
:10030000681741F4791731F4B0E0A4E80C91087F44
:1003100005600C930895F4E0E6E50491002E019445
:100320000A9408B3002108BBB0E0A0E67D916C916F
:1003300030E029E1620F731FB0E0A2E87D936C9377
:10034000B0E0A4E80C91087F06600C930895B0E03B
:10035000A0E67D916C91B0E0A2E89D918C91681728
:1003600039F4791729F4B0E0A4E80C91087F0C93D4
:100370000895D0E0C4E90881013039F0023039F045
:10038000053039F0063039F0089507D008951FD0B0
:10039000089530D008954AD00895F4E0E8E5049136
:1003A000102E08B3012908BBB0E0A0E67D916C9146
:1003B00030E029E1620F731FB0E0A2E97D936C93F6
:1003C000B0E0A4E90C91087F02600C930895B0E0BE
:1003D000A0E67D916C91B0E0A2E99D918C916817A7
:1003E00041F4791731F4B0E0A4E90C91087F05607D
:1003F0000C930895F4E0E8E50491002E01940A942A
:1004000008B3002108BBB0E0A0E67D916C9130E01C
:1004100029E1620F731FB0E0A2E97D936C93B0E015
:10042000A4E90C91087F06600C930895B0E0A0E663
:100430007D916C91B0E0A2E99D918C91681739F49F
:10044000791729F4B0E0A4E90C91087F0C93089582
:0A045000F894D6CD02001000080059
:00000001FF
