:020000020000FC
:100000000FC00DC00CC00BC00AC04CC008C007C058
:1000100006C005C004C003C035C001C000C0F0CF99
:1000200011241FBE02E00EBF0FE50DBF1127F8948B
:1000300003B7056003BF09B7026009BF00EF02BF45
:1000400078941124D0E0C0E6002719920395083077
:10005000E1F7F89405B7006205BF08B1006808B978
:1000600000B50B6000BD01B5086101BD016601BDB1
:100070007894B99A26D02AD039D051D075D0106151
:10008000F9CF73C01F920F920FB60F920F93A895DE
:1000900001B5006401BD1F7E0F910F900FBE0F9040
:1000A0001F9018951F920F920FB60F920F9300EFAB
:1000B00002BF11601F7E0F910F900FBE0F901F9017
:1000C000189514FF0895789488950895F89410FF72
:1000D0000BC0D0E0C0E63991288123950FB701FD10
:1000E000339528833A931E7F78940895F894A0E678
:1000F000B0E0C2E6D0E07D916C91681771F49991FF
:100100008881791751F428EE33E0821F0FB700FD84
:100110009395930F88839A9312607894089511FFB2
:100120000895D0E0C4E63991288123950FB701FDE9
:10013000339528833A931D7F089512FF0895D0E0E8
:10014000C4E63991288123950FB701FD33952883A3
:100150003A931B7F089515FF0895B19B03C0C19882
:0E0160001F7D0895C19A08950895F89449CF1F
:00000001FF
