:020000020000FC
:100000000FC00DC00CC00BC00AC061C008C007C043
:1000100006C005C004C003C04AC001C000C0F0CF84
:10002000F89411241FBE02E00EBF0FE50DBF11248E
:10003000D0E0C0E60027199203950038E1F71127B8
:1000400003B7056003BF09B7026009BF00EF02BF35
:1000500005B7006205BF08B1006808B900B50B60BC
:1000600000BD01B5086101BD016601BD7894B99A72
:10007000BC9ABB9A3BD0E4E6F0E071916081C0E8A5
:10008000D0E099918881681769F4791759F430E0C4
:1000900027E0620F731F68837A93D0E0C6E6088179
:1000A00001610883000028D0C7D0E4CF35C11F927A
:1000B0000F920FB60F920F93A89501B5006401BD82
:1000C0001D7F0F910F900FBE0F901F9018951F92DC
:1000D0000F920FB60F920F9300EF02BF11601D7FBA
:1000E0000F910F900FBE0F901F90189511FF08955C
:1000F0007894889512600895F89410FF0DC00ED082
:10010000D0E0C0E63991288101E0002E1124200DB5
:10011000311D28833A931E7F78940895A0E6B0E0BD
:10012000C2E6D0E07D916C9199918881681799F42D
:10013000791789F428EE33E0820F931F88839A930E
:10014000D0E0C4E63991288101E0002E1124200D71
:10015000311D28833A930895D0E0C6E608810F70D8
:10016000093039F00A3039F00D3039F00E3039F0FD
:10017000089507D008951FD0089530D008954AD02B
:100180000895F3E0ECE10491102E08B3012908BBB7
:10019000B0E0A0E67D916C9130E029E1620F731F21
:1001A000B0E0A2E77D936C93B0E0A6E60C91087FE7
:1001B00002600C930895B0E0A0E67D916C91B0E0F0
:1001C000A2E79D918C91681741F4791731F4B0E062
:1001D000A6E60C91087F05600C930895F3E0ECE12E
:1001E0000491002E01940A9408B3002108BBB0E0EA
:1001F000A0E67D916C9130E029E1620F731FB0E0C1
:10020000A2E77D936C93B0E0A6E60C91087F0660B0
:100210000C930895B0E0A0E67D916C91B0E0A2E768
:100220009D918C91681739F4791729F4B0E0A6E60E
:100230000C91087F0C930895D0E0C6E60881077101
:10024000013139F0023139F0053139F0063139F038
:10025000089507D008951FD0089530D008954AD04A
:100260000895F3E0EEE10491102E08B3012908BBD4
:10027000B0E0A0E67D916C9130E02DE7620F731F36
:10028000B0E0A2E87D936C93B0E0A6E60C91087F05
:1002900002600C930895B0E0A0E67D916C91B0E00F
:1002A000A2E89D918C91681741F4791731F4B0E080
:1002B000A6E60C91087F05600C930895F3E0EEE14B
:1002C0000491002E01940A9408B3002108BBB0E009
:1002D000A0E67D916C9130E029E1620F731FB0E0E0
:1002E000A2E87D936C93B0E0A6E60C91087F0660CF
:1002F0000C930895B0E0A0E67D916C91B0E0A2E887
:100300009D918C91681739F4791729F4B0E0A6E62D
:100310000C91087F0C930895F89472CE020010009F
:00000001FF
