:020000020000FC
:1000000024C10DC00CC00BC00AC0A3C108C007C0EA
:1000100006C005C004C003C08CC101C000C0F0CF41
:10002000C29A00000000000000000000C09800001C
:10003000000000000000C298C09A0EB100680EB91E
:100040000895C098C29AB29BFECF00000000000045
:100050000000C09A00000000000000000EB1006225
:100060000EB908950DB1016000000000000000000D
:1000700000000DB9B29BFECF0000000000000000A0
:100080000DB9769BF1CF00000000000000000000D9
:100090000FEF0FB9B89A0895C2980EB10064017FAE
:1000A0000EB9E0DF0895B8980EB10E640EB9DADF2C
:1000B0000895220FB0E0AAE60C9100FF01C0216074
:1000C0002FB9EADFF0DF789906C0B0E0AAE60C911C
:1000D00004600C93B6DF08952FB9DEDFE4DF789972
:1000E00006C0B0E0AAE60C9104600C93AADF089564
:1000F000B898D2DF3FB1D7DF0895B0E0ABE6002774
:100100000C938F939F9393EC80E500000000000018
:1001100000000000000000000000000000000000DF
:100120000197803091F7903081F79F918F91F5E0A2
:10013000EAE807E0002E0591102E72DF212DB9DFCD
:10014000259132D07EDF959185918F939F9300000A
:10015000000000000000000000000000000000009F
:10016000000000000197803091F7903081F79F9157
:100170008F910A9411F70895207FB0E0ABE60C91BF
:1001800000FF01C02160246001C02B7FA5DF22FD9C
:10019000FCCF08950F92022EEFDF0294202DECDFAA
:1001A00028E09ADF0F900895B0E0ABE60C910E7F47
:1001B0000C93F0DF0895B0E0ABE60C9101600C9376
:1001C000E9DF0895F5E0EAE80491102E29DF212DFA
:1001D00070DF22E0E9DF35DF8F939F9395E08AEFB0
:1001E000000000000000000000000000000000000F
:1001F0000000000000000197803091F7903081F7F7
:100200009F918F91F5E0E0EA08E0002E09DF212DB3
:1002100050DF2591D0DF15DF8F939F9390E087E229
:1002200000000000000000000000000000000000CE
:100230000000000000000197803091F7903081F7B6
:100240009F918F910A9411F70895F89411241FBE7D
:1002500002E00EBF0FE50DBF1124D0E0C0E600277D
:10026000199203950038E1F7112703B7056003BF22
:1002700009B7026009BF00EF02BF05B7006205BF02
:1002800008B1006808B900B5096000BD01B5086192
:1002900001BD016601BDB99AC19ABB9AC09AC29AC2
:1002A000B89ABA9A0FEF0FB900270A620DB9002762
:1002B000006F0EB9B0E0AAE600270C93C498BC9872
:1002C000B0E0ACE600270C93789417DF7BDF50D0CA
:1002D000E4E6F0E071916081C0E8D0E09991888116
:1002E000681761F4791751F430E024E0620F731F4E
:1002F00068837A93C4E8D0E001E008836FD0E4E635
:10030000F0E071916081C0EAD0E09991888168172E
:1003100061F4791751F430E023E0620F731F6883B2
:100320007A93C4EAD0E001E0088368D027D0CFCF29
:1003300024C11F920F920FB60F920F93A89501B58B
:10034000006401BD1D7F0F910F900FBE0F901F9095
:1003500018951F920F920FB60F920F9300EF02BFE6
:1003600011601D7F0F910F900FBE0F901F90189579
:1003700011FF08957894889512600895F89410FFFD
:100380000DC00ED0D0E0C0E63991288101E0002EEA
:100390001124200D311D28833A931E7F78940895EF
:1003A000A0E6B0E0C2E6D0E07D916C9199918881A1
:1003B000681799F4791789F428EE33E0820F931FB8
:1003C00088839A93D0E0C4E63991288101E0002E19
:1003D0001124200D311D28833A930895F5E0EEE7AE
:1003E0003F2F2E2FD0E0C6E639932993F0E0E0E8C6
:1003F0003F2F2E2F3993288311D00895F5E0E4E89C
:100400003F2F2E2FD0E0C6E639932993F0E0E0EAA3
:100410003F2F2E2F3993288301D00895D0E0C8E6CE
:1004200039912881D32FC22F0C81013039F002304D
:1004300039F0053039F0063039F0089507D00895C5
:1004400030D008954BD0089576D00895F0E0E6E6D8
:1004500091918081F92FE82F0491102E08B3012982
:1004600008BB0296F92FE82F25913491D0E0C8E619
:10047000999188810296D92FC82FB0E0A0E67D918E
:100480006C91620F731F78836983B0E0A8E69D9139
:100490008C910496B92FA82F0C91087F02600C93C1
:1004A0000895D0E0C8E6999188810296D92FC82F87
:1004B00098818981B0E0A0E67D916C91681769F41C
:1004C000791759F4B0E0A8E69D918C910496B92F64
:1004D000A82F0C91087F05600C930895F0E0E6E6E4
:1004E00091918081F92FE82F0491002E01940A94B4
:1004F00008B3002108BB0496F92FE82F2591349109
:10050000D0E0C8E6999188810296D92FC82FB0E033
:10051000A0E67D916C91620F731F78836983B0E0D0
:10052000A8E69D918C910496B92FA82F0C91087F75
:1005300006600C930895D0E0C8E6999188810296F0
:10054000D92FC82F98818981B0E0A0E67D916C9168
:10055000681761F4791751F4B0E0A8E69D918C9189
:100560000496B92FA82F0C91087F0C930895B19B86
:1005700002C0C19801C0C19A0895F89441CD02000B
:100580000C001900080019001900270310040310BB
:10059000040300960205FA2800270C00270105FA3B
:0805A00048656C6C6F212121FC
:00000001FF
