:020000020000FC
:100000000FC00DC00CC00BC00AC06CC008C007C038
:1000100006C005C004C003C055C001C000C0F0CF79
:10002000F89411241FBE02E00EBF0FE50DBF11248E
:10003000D0E0C0E60027199203950034E1F7D0E044
:10004000C0E830E028E13A832B8302E00C830027EC
:100050000D83112703B7056003BF09B7026009BF0D
:1000600000EF02BF05B7006205BF08B1006808B91C
:1000700000B50B6000BD01B5086101BD016601BDA1
:100080007894B99A3ED0E4E6F0E0C6E6D0E071910B
:10009000608199918881681781F4791771F430E053
:1000A00023E0621F0FB700FD7395730F68837A9387
:1000B000D0E0C0E7088101600883000028D058D054
:1000C000E1CFDEC01F920F920FB60F920F93A8954B
:1000D00001B5006401BD1D7F0F910F900FBE0F9001
:1000E0001F9018951F920F920FB60F920F9300EF6B
:1000F00002BF11601D7F0F910F900FBE0F901F90D8
:10010000189511FF08957894889512600895F894D1
:1001100010FF0CC00DD0D0E0C0E6399128812395A6
:100120000FB701FD339528833A931E7F7894089585
:10013000A0E6B0E0C2E6D0E07D916C919991888113
:100140006817A9F4791799F428EE33E0821F0FB7E6
:1001500000FD9395930F88839A93D0E0C4E639917C
:10016000288123950FB701FD339528833A9308958D
:10017000D0E0C0E7088105FD12C000FF10C0D0E04C
:10018000C2E730E020E838832983D0E0C0E7088167
:1001900000620883D0E0C5E800270160088302D030
:1001A00036D00895F0E0E2E730812181D32FC22FCD
:1001B0000D810170013051F50D8100780038E1F0BA
:1001C0000D8100680D83FA81EB810C81102E08B33C
:1001D000012908BBE0E6F0E0C0E8D0E07191608161
:1001E0009991888130E022E3621F0FB700FD73957B
:1001F000730F68837A930AC0F0E0E2E730812181CF
:10020000D32FC22F0D810E7702600D830895F0E089
:10021000E2E730812181D32FC22F0D81027002309D
:1002200071F50D8100780038F1F00D8100680D83C3
:10023000FA81EB810C81102E11941A9408B30121DC
:1002400008BBE0E6F0E0C0E8D0E0719160819991F0
:10025000888130E022E3621F0FB700FD7395730FB2
:1002600068837A930CC0F0E0E0E732812381D32FDA
:10027000C22F0D810D770D8300810E7D00830895BF
:04028000F894BECE62
:00000001FF
