:020000020000FC
:100000000FC00DC00CC00BC00AC07CC008C007C028
:1000100006C005C004C003C065C001C000C0F0CF69
:10002000F89411241FBE02E00EBF0FE50DBF11248E
:10003000D0E0C0E60027199203950038E1F7D0E040
:10004000C0E830E022E33887298730E022E03A87B1
:100050002B8730E028E13C872D8702E00E870027C0
:100060000F8730E020E6388B298B30E024E63A8B8E
:100070002B8B112703B7056003BF09B7026009BFC7
:1000800000EF02BF05B7006205BF08B1006808B9FC
:1000900000B50B6000BD01B5086101BD016601BD81
:1000A0007894B99A3ED0E4E6F0E0C0E8D0E07191EF
:1000B000608199918881681781F4791771F430E033
:1000C00025E0621F0FB700FD7395730F68837A9365
:1000D000D0E0C0E7088101600883000028D058D034
:1000E000E1CFB8C01F920F920FB60F920F93A89551
:1000F00001B5006401BD1D7F0F910F900FBE0F90E1
:100100001F9018951F920F920FB60F920F9300EF4A
:1001100002BF11601D7F0F910F900FBE0F901F90B7
:10012000189511FF08957894889512600895F894B1
:1001300010FF0CC00DD0D0E0C0E639912881239586
:100140000FB701FD339528833A931E7F7894089565
:10015000A0E6B0E0C2E6D0E07D916C9199918881F3
:100160006817A9F4791799F428EE33E0821F0FB7C6
:1001700000FD9395930F88839A93D0E0C4E639915C
:10018000288123950FB701FD339528833A9308956D
:10019000D0E0C0E7088105FD12C000FF10C0D0E02C
:1001A000C2E730E020E838832983D0E0C0E7088147
:1001B00000620883D0E0CFE800270160088302D006
:1001C00023D00895F0E0E2E730812181D32FC22FC0
:1001D0000F8501700130B9F40F850078003849F0BF
:1001E0000F8500680F870E85102E08B3012908BB04
:1001F0000AC0F0E0E2E730812181D32FC22F0F85C2
:100200000E7702600F870895F0E0E2E730812181E8
:10021000D32FC22F0F8502700230D9F40F850078DA
:10022000003859F00F8500680F870E85102E119445
:100230001A9408B3012108BB0CC0F0E0E0E732815A
:100240002381D32FC22F0F850D770F8700810E7D5D
:0802500000830895F894D4CE58
:00000001FF
