:020000020000FC
:100000000FC00DC00CC00BC00AC076C008C007C02E
:1000100006C005C004C003C05FC001C000C0F0CF6F
:1000200011241FBE02E00EBF0FE50DBF1127F8948B
:1000300003B7056003BF09B7026009BF002702BF0D
:1000400078941124D0E0C0E6002719920395083077
:10005000E1F7F89405B7006205BF08B1006808B978
:1000600000B50B6000BD01B5086101BD016601BDB1
:100070007894B99A12FF01C054D0000010FF17C045
:10008000D0E0C0E67991688163950FB701FD739563
:1000900068837A931E7FB0E0A0E67D916C91603119
:1000A00031F4713021F411241C921E92126013FF5E
:1000B00002C031D0177F11FF0CC0D0E0C2E67991A9
:1000C000688163950FB701FD739568837A931D7FEF
:1000D00018601460CFCF26C01F920F920FB60F92F8
:1000E0000F93A89501B5006401BD1B7F0F910F9080
:1000F0000FBE0F901F9018951F920F920FB60F9280
:100100000F93112412BE11601B7F0F910F900FBE31
:100110000F901F901895B19B02C0C19801C0C19A61
:0801200008950895F8946CCFD6
:00000001FF
